{
  "contractName": "HelloWorld",
  "abi": [
    {
      "inputs": [],
      "name": "meuNumero",
      "outputs": [
        {
          "internalType": "uint256",
          "name": "",
          "type": "uint256"
        }
      ],
      "stateMutability": "view",
      "type": "function",
      "constant": true
    },
    {
      "inputs": [
        {
          "internalType": "uint256",
          "name": "_novoNumero",
          "type": "uint256"
        }
      ],
      "name": "setInt",
      "outputs": [],
      "stateMutability": "nonpayable",
      "type": "function"
    }
  ],
  "bytecode": "0x60806040526000805534801561001457600080fd5b50610133806100246000396000f3fe6080604052348015600f57600080fd5b506004361060325760003560e01c806344420311146037578063e7dda5ad14604f575b600080fd5b604d60048036038101906049919060af565b6069565b005b60556073565b6040516060919060e4565b60405180910390f35b8060008190555050565b60005481565b600080fd5b6000819050919050565b608f81607e565b8114609957600080fd5b50565b60008135905060a9816088565b92915050565b60006020828403121560c25760c16079565b5b600060ce84828501609c565b91505092915050565b60de81607e565b82525050565b600060208201905060f7600083018460d7565b9291505056fea264697066735822122085001a3797f16573b76ad5641d7a0ecd2b5d2d887249c21963c5dc25a0444d0764736f6c634300080b0033",
  "immutableReferences": {},
  "source": "// SPDX-License-Identifier: MIT\r\npragma solidity ^0.8.7;\r\n\r\ncontract HelloWorld {\r\n    uint public meuNumero = 0;\r\n\r\n    function setInt (uint _novoNumero) public {\r\n        meuNumero = _novoNumero;\r\n    }\r\n\r\n}",
  "sourcePath": "C:\\estudos\\Solidity_Exercises\\contracts\\helloworld.sol",
  "compiler": {
    "name": "solc",
    "version": "0.8.11+commit.d7f03943.Emscripten.clang"
  },
  "schemaVersion": "3.4.4",
  "updatedAt": "2022-12-17T13:38:16.587Z",
  "networkType": "ethereum",
  "devdoc": {
    "kind": "dev",
    "methods": {},
    "version": 1
  },
  "userdoc": {
    "kind": "user",
    "methods": {},
    "version": 1
  }
}