{
  "contractName": "ContratoPayable",
  "abi": [
    {
      "inputs": [],
      "stateMutability": "nonpayable",
      "type": "constructor"
    },
    {
      "inputs": [],
      "name": "enderecoInterior",
      "outputs": [
        {
          "internalType": "address",
          "name": "",
          "type": "address"
        }
      ],
      "stateMutability": "view",
      "type": "function",
      "constant": true
    },
    {
      "inputs": [],
      "name": "receberDinheiro",
      "outputs": [],
      "stateMutability": "payable",
      "type": "function",
      "payable": true
    }
  ],
  "bytecode": "0x608060405234801561001057600080fd5b50336000806101000a81548173ffffffffffffffffffffffffffffffffffffffff021916908373ffffffffffffffffffffffffffffffffffffffff1602179055506101c2806100606000396000f3fe6080604052600436106100295760003560e01c80630e1480851461002e5780631b6fdd9414610038575b600080fd5b610036610063565b005b34801561004457600080fd5b5061004d61010c565b60405161005a9190610171565b60405180910390f35b60008054906101000a900473ffffffffffffffffffffffffffffffffffffffff1673ffffffffffffffffffffffffffffffffffffffff166108fc349081150290604051600060405180830381858888f193505050501580156100c9573d6000803e3d6000fd5b50336000806101000a81548173ffffffffffffffffffffffffffffffffffffffff021916908373ffffffffffffffffffffffffffffffffffffffff160217905550565b60008054906101000a900473ffffffffffffffffffffffffffffffffffffffff1681565b600073ffffffffffffffffffffffffffffffffffffffff82169050919050565b600061015b82610130565b9050919050565b61016b81610150565b82525050565b60006020820190506101866000830184610162565b9291505056fea264697066735822122004dd764ff7f92b26167602c4eeba6463465c9fa9506ed9705b8ec673ee500fa264736f6c634300080b0033",
  "immutableReferences": {},
  "source": "// SPDX-License-Identifier: GPL-3.0\r\npragma solidity ^0.8.7;\r\n\r\ncontract ContratoPayable {\r\n    address public enderecoInterior;\r\n    \r\n\r\n    \r\n    constructor() {\r\n        enderecoInterior = msg.sender;\r\n\r\n    }\r\n\r\n    function receberDinheiro() public payable {\r\n        payable(enderecoInterior).transfer(msg.value);\r\n        enderecoInterior = msg.sender;\r\n    }\r\n}/// a transação feita neste contrato de 10eth ficarao presas para sempre, pq nao foi feita a função de retirar eth do contrato\r\n",
  "sourcePath": "C:\\estudos\\Solidity_Exercises\\contracts\\ContratoPayable.sol",
  "compiler": {
    "name": "solc",
    "version": "0.8.11+commit.d7f03943.Emscripten.clang"
  },
  "schemaVersion": "3.4.4",
  "updatedAt": "2022-12-21T13:37:23.414Z",
  "networkType": "ethereum",
  "devdoc": {
    "kind": "dev",
    "methods": {},
    "version": 1
  },
  "userdoc": {
    "kind": "user",
    "methods": {},
    "version": 1
  }
}